:020000040800F2
:10000000381000200101000873100008110C0008CE
:100010007110000859020008472500080000000080
:10002000000000000000000000000000BD100008FB
:10003000ED0200080000000075100008BF10000865
:100040001B0100081B0100081B0100081B01000820
:100050001B0100081B0100081B0100081B01000810
:100060001B0100081B0100081B0100081B01000800
:100070001B0100081B0100081B0100081B010008F0
:100080001B0100081B0100081B0100081B010008E0
:10009000C92400081B0100081B0100081B010008FF
:1000A0001B0100081B0100081B0100081B010008C0
:1000B0001B0100081B0100081B0100081B010008B0
:1000C0001B0100081B0100081B0100081B010008A0
:1000D0001B0100081B0100081B0100081B01000890
:1000E0001B0100081B0100081B010008DFF80CD0F1
:1000F00000F066F8004800476D2500083810002021
:100100000648804706480047FEE7FEE7FEE7FEE7B1
:10011000FEE7FEE7FEE7FEE7FEE7FEE75511000813
:10012000ED000008202A04DB203A21FA02F0002129
:10013000704721FA02F3D040C2F1200291400843F7
:100140001946704710B5044604E00B7800F8013BEF
:1001500003B1491C521EF8D2204610BD2DE9F05FB4
:100160000546002092469B46884606468146402426
:100170001BE02846414647462246FFF7D3FF534639
:100180005A46C01A914110D311461846224600F033
:1001900029F82D1A67EB01084F462246012000215D
:1001A00000F020F817EB00094E41201EA4F10104D5
:1001B000DFDC484631462A464346BDE8F09F000052
:1001C000064C074D06E0E06840F0010394E80700A4
:1001D00098471034AC42F6D3FFF78CFF182C000878
:1001E000382C0008202A04DB203A00FA02F1002013
:1001F00070479140C2F1200320FA03F31943904065
:10020000704770B58C1810F8015B15F0070301D129
:1002100010F8013B2A1106D110F8012B03E010F869
:10022000016B01F8016B5B1EF9D12B0705D400238C
:10023000521E0DD401F8013BFAE710F8013BCB1A2E
:10024000921C03E013F8015B01F8015B521EF9D523
:10025000A142D8D3002070BDFEE7002070470020E7
:100260007047000010B5204C05490022204601F0DF
:100270008CF80449204601F082F8002010BD00BF30
:100280008406002004060020B0B50C460A4D014645
:1002900022682846FFF756FF20680021295412489B
:1002A00001F052F8287802217328044808BF012180
:1002B00001700020B0BD00BF900100209801002017
:1002C0000A4601460848D0F8B802D0F8140208B12E
:1002D0000120704710B5044C204601F056F8204626
:1002E000BDE8104001F0B1B8040700207047704726
:1002F0001B48034900780A6810440860704700BF33
:10030000340C002080B50748016841F010010160FD
:10031000032000F075F8002000F006F800F024F843
:10032000002080BD0020024070B50D4E04464FF401
:100330007A713078B1FBF0F00A490968B1FBF0F04E
:1003400000F054FC01250F2C08D838B94FF0FF30CD
:1003500021460022002500F035F87460284670BD63
:10036000000000203400002082B00D480222016805
:1003700041F001010160016801F001010191019961
:10038000416841F080514160406800F08050009029
:1003900000980448016862F31A61016002B0704776
:1003A0001810024004000140002808DB00F01F0183
:1003B0000122400902FA01F1014A42F82010704777
:1003C00000E100E080B5144B1B68C3F3022CBCF1C4
:1003D000030E8CF007034FF0FF3C38BF4FF0000EC8
:1003E000042B28BF04230CFA03F399430CFA0EF3F1
:1003F00001FA0EF19A431143BDE8804002F0A4B81F
:1004000005494FF6FF030A681A4060F30A220348C1
:1004100010430860704700BF0CED00E00000FA05D3
:1004200080B501F0070E00EB411C090600EB4E10F1
:1004300000F1280058BF0CF594702AB10121038106
:100440000173190C418102E00021C3800173002077
:1004500080BD704700EB4112D0F86802D26B01F00A
:1004600038B900EB4112D0F86802D2F83C2101F013
:100470008FB910B5044601F00700090607D404EB54
:100480004011002281F8292101F5947105E004EB67
:100490004011012281F829202831087094F828029F
:1004A000012804BF022010BD012084F82802206822
:1004B00001F01CFE002084F8280210BDB0B50446EF
:1004C000406801F00F02824201D9012522E001F0CB
:1004D0000700090607D404EB4011002281F8292106
:1004E00001F5947105E004EB4011012281F8292007
:1004F000283100258D70087094F82802012801D158
:10050000022507E0012084F82802206801F086FE19
:1005100084F828522846B0BD01F0070100EB4110D5
:10052000D0F84401704710B5044601F007000906F1
:1005300004EB401C05D400218CF829110CF59471B2
:1005400004E001218CF829100CF128010A61CB701C
:1005500008704A7802B1C881022B04BF00200871DC
:1005600094F82802012804BF022010BD012084F85D
:100570002802206801F082FC002084F8280210BDC7
:1005800080B501F0070C4FF0000E00EB4C1101F5A7
:100590009E77A7E80C4081F829E181F828C101F590
:1005A0009471006801F090FE002080BDB0B5044653
:1005B000406801F00705854284BF0120B0BD0806F0
:1005C00007D404EB4110002180F8291100F5947143
:1005D00006E004EB4510012180F8291000F1280104
:1005E00001200D70887094F82822012A04BF02208F
:1005F000B0BD84F82802206801F04EFE25B92068BD
:1006000004F50C7101F008FE002084F82802B0BD4A
:1006100080B501F0070C00EB4C1101F828CF4FF02A
:10062000000C01F1140E8EE80C1001224A700068D3
:1006300001F04AFE002080BD2DE9F84F0446006815
:1006400001F048FF000401D4206859E104F50C7062
:1006500040F60F7500904CE1B0F8442012F00F0BFB
:100660002DD030F82BA04FEA4B095FEA0A4140F148
:10067000FA8030F8191004EB4B1707F594782940ED
:10068000803120F8191097F83411002900F0858086
:1006900098F8001030F82120B0F8503003EBC10179
:1006A000520400EB410100F18E80B1F80C646FF34D
:1006B0009F26002E00F0B080B7F832218AE0018832
:1006C000D2062CD4294001F500410180B0F8501029
:1006D00094F8282001EBC20100EB4100B0F80404BB
:1006E0006FF39F206064E16B08440021E0632046C3
:1006F000FFF7B0FE94F82400002800F0FA80206C88
:10070000002840F0F680206894F8241041F0800121
:10071000C9B2A0F84C10002084F82400E9E00A05D2
:100720005ED4090440F1E5800188294080310180D0
:10073000B0F8501094F8282101EBC20100F20C42ED
:1007400032F811306FF39F23002BC4F8443114D0DA
:10075000D4F83C1189B1B4F82E2101F0BEFED4F8D2
:100760003C01D4F8441108440021C4F83C0120465F
:10077000FFF777FE206800F20C42B0F85010D4F872
:100780003831002B00F097803E2B00F29C8003F064
:10079000010707EB53039B02A0E0B0F8501098F854
:1007A000002001EBC20100EB4101B1F80C646FF3D2
:1007B0009F26002E7DD0B7F82E21D7F83C11334666
:1007C00001F08BFE34E0B1F804646FF39F261EB392
:1007D000B7F83021D7F83C11334601F07EFE1CE01B
:1007E000B0F8501094F8282101EBC20100EB410150
:1007F000B1F80C3400996FF39F23C4F84431B4F876
:100800002E2101F06AFE2068018829408031018094
:10081000204600F0BBF96CE0002698F80000216843
:1008200048F2C00331F820202A401A4321F8202042
:10083000D7E94F03D7F8441131448219002BC7F888
:100840004411C7F83C2103D0D7F83801B04205D98C
:1008500098F800102046FFF704FE04E098F8001016
:100860002046FFF78DFE5FEA0A6042D5206804EB60
:100870004B1330F81910294001F5004120F81910E8
:10088000B0F8502093F8281002EBC10200EB4200B0
:10089000B0F804046FF39F205864DA6B02442046DA
:1008A000DA631B6C13B1FFF7B3FE22E0FFF7D2FD52
:1008B0001FE00026BCE78B5A574E23F4F8438B52B7
:1008C0008B5A33430AE0DF064FF0FF364FEA5317E7
:1008D00008BF06EB5317504B43EA87238B5243F66E
:1008E0000F720188114048F2C00202F53F52514098
:1008F00001802068B0F94410B1F1FF3F7FF7ACAE42
:1009000001F0E8FD40050DD52068B0F8441021F451
:100910008061A0F84410204600F00AF9204600212A
:1009200000F020F9206801F0D5FD01462068490457
:1009300042BFB0F8441021F48041A0F8441001F007
:10094000C9FD01462068890442BFB0F8441021F473
:100950000051A0F8441001F0BDFD01462068C90413
:1009600015D5B0F8401021F00401A0F84010B0F8FF
:10097000401021F00801A0F84010204600F0EAF8ED
:100980002068B0F8441021F48051A0F8441001F020
:10099000A1FD000520D52068B0F8401041F0080105
:1009A000A0F84010B0F8441021F40061A0F8441001
:1009B000B0F8401041F00401A0F8401001F08AFDA9
:1009C000C00406D52068B0F8441021F48051A0F886
:1009D0004410204600F0FAF8206801F07BFD800505
:1009E00009D52068B0F8441021F40071A0F8441033
:1009F000204600F0B3F8206801F06CFDC00558BF38
:100A0000BDE8F88F2068B0F8441021F48071A0F898
:100A10004410BDE8F88F00BF0080FFFFF0B585B03F
:100A2000002859D0044690F8290228B9002084F8FB
:100A30002802204600F05EF8032084F8290220688E
:100A400001F0E1FB94E82F50D4E907678DE82050CE
:100A5000CDE9036701F048FBD8BB206800210025E1
:100A600001F057FD6168012000220CE004EB431700
:100A7000FB8687F8282087F82900C7E90E553D64D2
:100A800087F82B500132D3B29942EFD800200022D0
:100A90000CE004EB4313C3E94E00C3F8400183F8B4
:100AA0002B0183F8282183F829010132D3B299421E
:100AB000EFD804F1080720688CCFD4E90565D4E9A4
:100AC00007CECDE9007602AE86E8205001F089FB22
:100AD00030B1022084F829020125284605B0F0BD76
:100AE0000025012084F8245084F82902206801F0B0
:100AF00076FBF2E700680C49884218BF7047E0B502
:100B00000A480022016841F40001016000210068E8
:100B100000F40000019001981420FFF753FC14200A
:100B2000BDE88C40FFF740BC005C00401C10024058
:100B300010B504468068022818BFFFF7D8FBD4F828
:100B40006802012100F00CFFD4F86802BDE81040F3
:100B500000F0C5BED0F8680200F0EABED0F8680226
:100B600000F0F0BE10B5044690F82802012804BF3A
:100B7000022010BD012084F8241084F82802206887
:100B800001F0C9FC002084F8280210BDD0F86822CA
:100B900000F50C71104600F0EFBE10B5044690F859
:100BA0002802012804BF022010BD0120012184F881
:100BB00028022046FFF74DFC206801F00EFB20685C
:100BC00001F07AFC002084F8280210BD10B504461C
:100BD000D0F8680200F00DFFA06920B1024801685A
:100BE00041F00601016010BD10ED00E0411E002043
:100BF000B0EB116F1CBF01207047254AF0235160F4
:100C000002490B70072190601160704723ED00E0EE
:100C1000FEE70000C0B563494FF00A0C0A6822F4F1
:100C200000620A600A6842F480620A600A6842F45C
:100C300080720A60F84A4B69DB0709D11368DB034D
:100C4000F9D5ACF1010E5FEA0C63F446F3D110E084
:100C50000B69400060F307030B61486980070AD401
:100C60001068C003F9D5ACF101005FEA0C6384465B
:100C7000F3D1002006E04869009000988869009050
:100C8000009801200A6842F400720A6001B080BD39
:100C900010E000E02DE9F04F85B0804601A800F09B
:100CA00083F93C4D3CA14246284601F01FFD2846F1
:100CB0000721FFF705FBBA483A4F00264CF6FF7AAA
:100CC0008146B84883465EE0032000F093F9386817
:100CD0004A465C4620F001003860334850F8261040
:100CE00003987B68B0FBF9F223F03F03594543EAD0
:100CF00002037B603B6A23F03F030BD201324900C1
:100D00001A43B0FBF1F040F6FC713A62084208BFAA
:100D1000042015E04FF4967401EB410162434FF457
:100D20007A74B0FBF1F0B2FBF4F2010540F400403C
:100D300002F1010242EA03023A6208BF48F20100EE
:100D4000F96921EA0A010843F861386840F00100B6
:100D500038604046FFF75EFF60B114481449C5E9AA
:100D6000001028460721FFF7ABFA12484FF4005154
:100D7000016007E010481149C5E900102846072125
:100D8000FFF79EFA0136042E9ED1002005B0BDE883
:100D9000F08F00BFA00100200D0A307825303258B6
:100DA00020000000005400402400002020202000EB
:100DB00020202056141001402D20200020202D2D11
:100DC000B0B552004FF0000C4FF0370E00239A429E
:100DD00008BFB0BD0EEB1074050FB0F1204F4FEA05
:100DE000001038BF05F13004CC5443F00104023345
:100DF00001F804C0EBE7000081B005490A6802432E
:100E00000A60096808400090009801B0704700BF70
:100E1000181002402DE9F04FB1F801804FF0010C9D
:100E20004FF00F0B4FF003094FF0040A98FAA8F3A4
:100E3000B3FA83F338FA03F504BF0020BDE8F08F5E
:100E40000CFA03F515EA080F3FD0072B04D840F23F
:100E5000011202FA03F607E0A3F108054FF00112B0
:100E600002FA05F545F0806696FAA6F5370E4A684F
:100E7000B5FA85F53C58AD000BFA05FEAA4024EA08
:100E80000E0422433A50320A92FAA2F20C69B2FAE4
:100E900082F204FA02F2C46824EA16263243C260DF
:100EA0004A6842F00802092A0FD1C65909FA05F228
:100EB00026EA02028E68AE4032430AFA05F6C251B3
:100EC000B243CE68AE403243C2510133B2E70000B4
:100ED0007FB5044600680D4620F00100206068469A
:100EE00000F062F82E4902982E4EB0FBF1F3D5E9DE
:100EF000011C626822F03F02B14242EA03026260D2
:100F0000226A22F03F020BD2013349001A43B0FBA0
:100F1000F1F040F6FC712262084208BF04201CE098
:100F20004FF49676BCF1000F06FB03F34FF47A768C
:100F3000B3FBF6F303F1010342EA030222624FF02E
:100F4000190208BF03225143B0FBF1F0010508BFAD
:100F5000012040EA0C0040F40040E1694CF6FF72C9
:100F600048F2FF3391430843E061E8686969A26889
:100F70009A4308431043A0602868216821F01A01B1
:100F800008432060206840F0010020602869216843
:100F900021F4806108432060002004B070BD00BFD0
:100FA00040420F00A186010010B5044600F064F82D
:100FB000664920600A4B0A68C2F303129A5C094B27
:100FC000D04060600A68C2F302229A5C20FA02F202
:100FD000A2600968C1F3C221595CC840E06010BD3D
:100FE000A02B0008B02B000801490860704700BF23
:100FF0003400002081B008490A680092421C08BFF2
:101000000246009803E00868C00302EBE072002A81
:10101000F9D101B0704700BF10E000E080B5104882
:101020001049002200F02EFB08B1FFF760F90C48D0
:101030000D4900F0FBFC08B1FFF759F908480B49CE
:1010400000F096F908B1FFF752F9054800F002FDEB
:10105000002814BFBDE8804080BDFFF748B900BF3D
:101060000407002008000020380000205C01002058
:10107000FEE77047704700003448006800F00C003D
:10108000082814BF0C4800F001B870472F480168C9
:10109000C90301D4074906E00168074AC1F340418A
:1010A0000131B2FBF1F10068C0F3834002304843E4
:1010B000704700BF00093D0000127A007047FFF73B
:1010C00017B9000010B520480122204C016862F3D6
:1010D00002010160006854F8040C40F4803044F8C8
:1010E000040C54F8040C8003FBD52068112161F333
:1010F0001540206054F8040C40F0807044F8040C53
:1011000054F8040C8001FBD52068042120F0F00085
:101110002060206861F30A2002212060206820F40A
:1011200060502060206861F301002060206800F0BA
:101130000C000828FAD10648FFF756FF206840F453
:101140008000206010BD00BF00200240041002405B
:10115000006CDC020E480F4A016841F00101016099
:10116000416811400C4A416001681140016001680A
:1011700021F480210160416821F4FE0141604FF4B7
:101180001F01816005484FF000610160704700BF9A
:10119000001002400000FFF8FFFFF6FE08ED00E03F
:1011A00010B5D0F8B822AAB101EB810300EB830C93
:1011B0005CF81C4F54B1D0F8C03203EB4113D3F8A4
:1011C00038E0B4FBFEF303FB1E432BB10024C2F84E
:1011D000144208E0022406E0002400220023CCF898
:1011E000004000F00FFC204610BDB0B5D0F8B8525A
:1011F000044600F00CFBC5F80C02D4F8B80248B164
:10120000D4F8BC22D5F8040205F50371D2689047E2
:101210000020B0BD0220B0BD70B50F4E8121044644
:10122000B047002520460121E562B04720468221D3
:10123000C4F86C51B0472564D4F8B80248B1D4F86A
:10124000BC0240688047D4F8B80200F011FEC4F830
:10125000B852002070BD00BFC116000810B5D0F80C
:10126000BC1269B1D0F8B84294F80002FF2807D048
:101270008B6894F8012221469847FF2084F80002E9
:10128000002010BD0A21018000487047F8000020AE
:1012900043210180004870477000002043210180F5
:1012A00000487047B4000020432101800048704787
:1012B0000401002070B50446007C50B12046812115
:1012C0000222402300F0F6FA0120012102224023ED
:1012D0000BE02046812102224FF4007300F0EAFA6D
:1012E0000120012102224FF40073E062204600F049
:1012F000E1FA01252046822103220823C4F86C511B
:1013000000F0D8FA4FF40770256400F0B3FD002810
:10131000C4F8B80216D00646D4F8BC02006880476C
:1013200000200121C6F81402C6F81802207CD6F865
:1013300004220028204614BF40234FF4007300F01D
:10134000C5FA0025284670BD80B5D0F8B81269B13D
:10135000D1F80422017C00294FF0010114BF402381
:101360004FF4007300F0B2FA002080BD022080BD6F
:1013700000290EBF0220C0F8BC1200207047D0F830
:10138000B802C0F8041200207047D0F8B802C0F8C4
:101390001022C0F80812002070477CB50446D0F82F
:1013A000B86200200D468DF80700ADF804000878FB
:1013B00010F060010FD020293FD1EA88CAB10006A1
:1013C00020D4687886F80122314686F8000220464B
:1013D00000F077F82FE068780B281DD00A2820D07D
:1013E00058BB94F89C02032827D101A92046022269
:1013F0001FE0D4F8BC126878002200248B682946CC
:1014000098471FE0D4F8BC1268788B68314698473B
:10141000EA88204631460CE094F89C0203280AD062
:101420000BE094F89C02032807D10DF10701204638
:10143000012200F05EF8002404E02046294600F076
:1014400035F80224204602B070BDD0F8B8229AB117
:10145000D2F81432012183B980B5C2F81412D2F83F
:10146000101201638BB28121D2F8082200F0CAFA6F
:101470000021BDE8804000E002210846704780B5A9
:10148000D0F8B42252689047002080BD80B5134642
:101490000A46002100F01AFA002080BD80B51346EC
:1014A0000A46002100F0AEFA002080BD10B5802170
:1014B000044600F08CFA20460021BDE8104000F000
:1014C00086BA80B513460A460321C0E95733C0F8EF
:1014D0009412002100F0FAF9002080BD80B50521AA
:1014E00000220023C0F89412002100F0EFF9002040
:1014F00080BD80B513460A460221C0E90733C0F813
:101500009412002100F07EFA002080BD80B50421F5
:1015100000220023C0F89412002100F073FA00208A
:1015200080BD000010B52B4C0A4603A0214600F0F8
:101530006FF8204610BD00BF43444320436F6E66E2
:1015400069670000122008800048704748010020A9
:1015500010B5204C0A4603A0214600F059F8204659
:1015600010BD00BF43444320496E746572666163D9
:101570006500000004200880004870476C010020CE
:1015800010B5144C0A4603A0214600F041F820464D
:1015900010BD00BF53544D6963726F656C65637411
:1015A000726F6E696373000010B50A4C0A4603A09F
:1015B000214600F02DF8204610BD00BF53544D3396
:1015C00032205669727475616C20436F6D506F7272
:1015D00074000000E40100201A2008800A4908680D
:1015E0008A6880180ED0B0B5084D4C680822A91C36
:1015F000FFF7E6FB05F1120120460422FFF7E0FBAE
:10160000BDE8B04001487047E8F7FF1F70010020B7
:1016100080B550B34FF0000C864603E00EF1010E8A
:101620000CF1010C9EF80030002BF7D15FFA8CFC16
:101630004FF0020E0EEB4C0CA2F800C081F800C077
:101640004FF0030C01220BE05FFA8EF301304FF0F4
:10165000000CCA544EF001020EF10203D2B29E46B3
:1016600001F802C00278002AEED180BD03288FBFA6
:101670000220C000024921FA00F098BFC0B27047B2
:101680000002010288B1D0F8B43213B10023C0F8CF
:10169000B43209B1C0F8B01280B50121027080F8EF
:1016A0009C1200F0B9F8002080BD0220704780B580
:1016B000D0F8C002FEF702FFBDE88040FFF7D6BFBA
:1016C00080B5D0F8C002FEF7D4FEBDE88040FFF739
:1016D000CDBFB0B5044669B1D4F8B40242693AB19D
:1016E00094F89C02032803D1204690470020B0BD07
:1016F0000220B0BDD4F8940280B104280ED0022894
:101700003DD1D4E9081081420DD9081A114683B29F
:10171000206220461A46FFF7C1FE18E020468021CD
:1017200000F055F92BE0E169814217D3B1FBF0F2EB
:1017300002FB101090B9D4F8980281420ED22046D4
:10174000002100220025FFF7A9FEC4F89852204688
:1017500000210022002300F0B9F810E0D4F8B40210
:10176000C16829B194F89C02032801D1204688471A
:101770002046802100F02BF92046FFF7AFFE94F8B9
:10178000A0120020012904BF84F8A002B0BDB0BDA2
:10179000B0B5044661B1D4F8B402826932B194F8AC
:1017A0009C02032802D1204690472DE002252CE020
:1017B000D4F894020025052812D0032825D1D4E9B5
:1017C0005810814213D9091AC4F86011814238BFF8
:1017D000084683B2114620461A46FFF757FE13E02B
:1017E00020460021C4F8945200F0F1F80DE0D4F83E
:1017F000B402016929B194F89C02032801D1204662
:1018000088472046FFF782FE00252846B0BDD0F865
:10181000C002FEF781BE0000B0B504461B4800219F
:101820001B4B0822C0F86842C4F8C002C0E9061188
:1018300001620221C0E900328160FFF7EFF808B1D0
:10184000FEF755FDD4F8C002124D002100221823E6
:10185000A847D4F8C002802100225823A847D4F812
:10186000C00281210022C023A847D4F8C002012170
:1018700000224FF48873A847D4F8C00282210022C6
:101880004FF48073A8470020B0BD00BFC8090020F6
:10189000005C004021040008D0F8C00201F07F0283
:1018A000090600EB421000F12A0258BF00F59572BC
:1018B0001078704780B59446D0F8C0021A46634647
:1018C000FEF731FEBDE88040FFF7D0BE80B5D0F80E
:1018D000C002FEF755FEBDE88040FFF7C7BEF8B571
:1018E000002100224023044600254026FFF7E2FFA6
:1018F00001272046802100224023C4F86461C4F8F7
:101900005871FFF7D7FF84F89C726662A761C4F82C
:101910009452C4F8A4526560D4F8B80228B1D4F83F
:10192000B4020021426820469047002001B0F0BD7B
:1019300090F89C12042904BF90F89D1280F89C1224
:101940000020704790F89C12032907D1D0F8B412F8
:10195000C96919B180B58847BDE88040002070474B
:1019600001740020704780B5D0F8C002FFF7FAF884
:10197000BDE88040FFF77ABEB0B500F52A75044691
:10198000284600F048F8B4F8AE120120C4E9A501D9
:1019900094F8A80200F01F01022907D001290AD0FB
:1019A00071B92046294600F05BF80EE02046294632
:1019B00000F08EF909E02046294600F033FA04E0F1
:1019C00000F08001204600F002F80020B0BD80B594
:1019D000D0F8C002FEF7EAFDBDE88040FFF746BE42
:1019E00080B5D0F8C002FFF7D8F8BDE88040FFF717
:1019F0003DBE90F89C1280F89D12042180F89C1244
:101A00000020704780B5D0F8C002FEF701FEBDE8A7
:101A10008040FFF72BBE0A7802704A7842704A88ED
:101A200042808A888280C988C180704700290EBFA1
:101A30000220C0F8B41200207047D0F8B4223AB1A6
:101A400080B512689047002818BF0120400080BD73
:101A50000220704780B5FFF7C3FF002080BD000063
:101A6000BCB5044608780D4610F060000BD0402845
:101A700002D0202840F02481D4F8B402294682689C
:101A8000204690471FE16878092800F21981DFE8B5
:101A900010F00A00200017012C00170157007A00EF
:101AA00017013400420094F89C020138022800F229
:101AB0000781E888022840F00381D4F8A4020322B9
:101AC0002146002808BF012241F80C2F204602229F
:101AD00075E094F89C020138022800F2F1806888D1
:101AE000012840F0F080002004E06888012840F0E0
:101AF000EA800120C4F8A402DEE0E888012840F072
:101B0000DF8094F89C02411E022952D20020214617
:101B100041F8080F51E068886C4DC1B22870022965
:101B200080F0CE8094F89C0203284BD0022840F02D
:101B30006780002900F0C080032084F89C024CE0FC
:101B4000A888002840F0BC80E888002840F0B880D1
:101B500068887F2800F2B48094F89C12032900F072
:101B6000AF8000F07F052046294684F89E52FFF79B
:101B7000FAFE2046FFF7CAFC002D0CBF0120022010
:101B800084F89C029FE000204FF0FF31ADF8060082
:101B9000688801EB1021062900F29280DFE801F04D
:101BA0000438249090454F00D4F8B012207C0A6885
:101BB0006FE0032840F08480211D20460122FFF7BA
:101BC00098FC80E0002946D06068884200F074806C
:101BD000C1B22046FFF753FC297820466160FFF729
:101BE0002CFF022868D16BE0C0B2052868D8DFE876
:101BF00000F0033B3F43474BD4F8B002426846E055
:101C00002046FFF753FC29782046FFF738FC5AE0BE
:101C1000217CD4F8B40200290CBF816AC16A0DF19D
:101C2000060088470146022013E0207C002847D1A7
:101C3000D4F8B402416B0DF1060088472CE0207CFB
:101C4000F0BBD4F8B402016B0DF1060088470146E1
:101C50000720487021E000206060022084F89C0288
:101C60002046FFF70CFC27E0D4F8B00282680EE0B3
:101C7000D4F8B002C2680AE0D4F8B002026906E003
:101C8000D4F8B002426902E0D4F8B0028269BAB175
:101C9000207C0DF1060190470146BDF8060048B1D1
:101CA000EA883AB1904238BF02462046ADF8062095
:101CB000FFF71FFCE88830B92046FFF727FC02E059
:101CC0002046FFF7F3FB002002B0B0BDE00100208A
:101CD000B0B5044608780A4610F060000AD04028E3
:101CE00001D0202846D1D4F8B4021146836820469A
:101CF000984742E0202807D1D4F8B40211468368FF
:101D00002046BDE8B040184750781179A8B10128A5
:101D100026D003282ED194F89C02032824D1508881
:101D2000002849D141F08000802845D0D088002883
:101D300042D12046FFF74BFE3EE094F89C02032878
:101D40001DD0022816D1002953D0802912D101F0CC
:101D50007F0000EB800004EB800000F1140150E0F4
:101D600094F89C0203281FD0022803D141F0800080
:101D7000802825D12046FFF799FB0020B0BD01F057
:101D80000F000A0600EB800004EB800020D4D0F89E
:101D900058010028EED001F07F0000EB800004EB3A
:101DA000800000F5AA751EE050880028E5D148069D
:101DB00002D02046FFF77BFC2046FFF7A7FBDCE7BD
:101DC0002046FFF704FE20468021FFF700FED4E7FF
:101DD00080690028CED001F07F0000EB800004EB8A
:101DE000800000F1140541F0800080280DD1002012
:101DF00011E001F07F0000EB800004EB800000F5B3
:101E0000AA7100200860204608E02046FFF744FD44
:101E10000028ECD001202860204629460222FFF746
:101E200068FBAAE7B0B5044608780D4610F06000DC
:101E300018BF402815D194F89C020138022812D806
:101E4000A88810F0FE0F0ED1D4F8B402294682689B
:101E50002046904750B9E88840B92046FFF756FB26
:101E600004E02028E7D02046FFF720FB0020B0BD8B
:101E70007047000000487047E40300202DE9F0415E
:101E80000C78024647F2706600EB840830F82400B4
:101E900091F803E020EA0605BEF1030F07D8002001
:101EA000DFE80EF002070D0A45F4007506E0012098
:101EB00005E045F4806501E045F4C065002048F286
:101EC000800C40F60F7645EA0C05A8F80050B8F8EB
:101ED00000503540254345EA0C05A8F800500D7B1D
:101EE000002D5ED0B8F8005040F60F6635400CF576
:101EF00080763543A8F8005002F58065B2F850703E
:101F00000B8905EB041623F00103F3532301B2F808
:101F100050204C8908332B4424F001049C524A7809
:101F2000B8F8001001F48041002A61D049B1B8F836
:101F3000001040F60F7211400CF580421143A8F8D2
:101F40000010B8F80010490609D5B8F8001040F69E
:101F50000F7211400CF140021143A8F80010B8F8BC
:101F6000001040F60F72BEF1010F01EA02010CF5FC
:101F7000804241EA020140F63F72A8F80010B8F82A
:101F8000001001EA02010CF1200282EA010208BFFE
:101F900041EA0C02A8F80020B8F8001043F60F72CE
:101FA00057E04F78B2F8505002F58066240135446E
:101FB000002F52D0C98821F001012953B8F8001030
:101FC000490609D5B8F8001040F60F7211400CF11F
:101FD00040021143A8F80010B8F8001040F63F7214
:101FE000BEF1010F01EA020134D00CF1200273E0CE
:101FF00049B1B8F8001040F60F7211400CF580425C
:102000001143A8F80010B8F80010490609D5B8F82F
:10201000001040F60F7211400CF140021143A8F875
:102020000010B8F8001040F60F7211400CF1400299
:10203000114343F60F72A8F80010B8F800101140D1
:102040000CF54052514040F63F72A8F80010B8F825
:102050000010114041EA0C013FE0CF8844F0080E27
:1020600027F0010725F80E7044F00C07B2F8502055
:102070000969F51939B13E290DD801F0010707EBBF
:102080005101890212E0515B164C21F4F841515381
:10209000515B21430AE0CE064FF0FF374FEA51165D
:1020A00008BF07EB51160F4941EA86215153B8F892
:1020B0000010490409D5B8F8001040F60F7211401D
:1020C0000CF580421143A8F80010B8F8001043F650
:1020D0000F7211400CF540525140A8F80010BDE8B5
:1020E000F08100BF0080FFFF0020704780B50A78B4
:1020F0004B78097B48F2800C30F822E000EB82003C
:1021000041B30EF480428BB33AB1018840F60F72AE
:1021100011400CF58042114301800188490607D522
:10212000018840F60F7211400CF14002114301800A
:10213000018840F60F7211400CF58042114340F6C1
:102140003F7201800188114041EA0C01018043F691
:102150000F7230E0B3B35FEA4E612AD5018840F6D2
:102160000F7211400CF14002114321E03AB1018895
:1021700040F60F7211400CF5804211430180018836
:10218000490607D5018840F60F7211400CF1400254
:1021900011430180018840F60F7211400CF140029A
:1021A000114343F60F7201800188114041EA0C018E
:1021B000018040F63F720188114041EA0C01018024
:1021C000002080BD5FEA4E41C1D5018840F60F7204
:1021D00011400CF580421143B8E700207047002001
:1021E00070470121A0F840100021A0F84010A0F88D
:1021F0004410A0F85010B0F8401041F43F41A0F84E
:10220000401000207047B0F8401044F2FF02114027
:10221000A0F8401000207047002070470A7BCABB1E
:102220000A784B7830F822C05200DBB15FEA4C6389
:1022300048F2A00C0ED580B530F812E040F60F73CE
:102240000EEA030E0CF1200343EA0E0320F81230CD
:10225000BDE88040C97801291CD030F8121040F642
:102260003F7312E05FEA4C414BF2800C09D530F825
:10227000123040F60F7119400CF58053194320F8C5
:10228000121030F8121043F60F73194081EA0C0156
:1022900020F812100020704791F800C04978094BCF
:1022A000002940F63F7108BF03F57F6308BF43F67E
:1022B0000F7130F82C201140594020F82C100020CC
:1022C000704700BF9080FFFFF8B5044608698E692B
:1022D0000D460146864288BF3146A1EB0001A96147
:1022E00088BF06466878297B012811D1A1B12978D9
:1022F00034F82120B4F8500009012044520600F5BA
:1023000080602DD441F00401465205F108002CE014
:1023100091B1F0B3287879E0EA886969B3B22046D0
:1023200000F0FFF8B4F850002118287802010432B8
:102330001144A1F800644FE0B4F85000002E20448E
:1023400000F5806128784FEA001202F10C0248D0B3
:102350003E2E4ED806F0010303EB56039B0254E0D9
:1023600041F00C01465205F10A0002886969B3B2D6
:10237000204600F0D6F8687808B301282BD12878D9
:1023800040F60F7234F820101140494A02F580528D
:102390001DE0B4F8500004F5806E002E0EEB000333
:1023A00028784FEA001202F104053CD03E2E50D8A6
:1023B00006F0010101EB56014FEA812C54E0287828
:1023C00040F60F7234F8201011403A4A103211438F
:1023D00024F8201000E0287840F63F7248F2B0015F
:1023E00018E0535A23F4F8435352535A43F400432A
:1023F0000BE0F5064FF0FF334FEA561508BF03EB2D
:1024000056154FF4004343EA8523535243F60F72A7
:102410004BF2800134F820301A40514024F820104B
:10242000002001B0F0BDE95A42F00C0221F4F8415D
:10243000E952E95A41F40041E952B4F850107144AC
:102440008B5A23F4F8438B528B5A43F400438B523C
:10245000DCE7F106154F4FF0FF3C4FEA561108BF7D
:102460000CEB561147EA812C25F803C042F00C0210
:102470003E2EB4F850100EEB01034BF2800105D84C
:1024800006F0010707EB5607BF020BE0F5064FF019
:10249000FF374FEA561508BF07EB56154FF40047B4
:1024A00047EA8527D75243F60F72B3E70080FFFF54
:1024B00080B0FFFFB080FFFFB0F8401041F43F4113
:1024C000A0F84010002070470148FEF7B5B800BFE3
:1024D000C8090020B0F8440070474FF0000C00EB32
:1024E000420000F58062ACEB530C481C08E032F867
:1024F000041B0CF1010C00F8011C090A01700230E8
:10250000BCF1000FF3D1D9071CBF118800F8011CE2
:1025100070470020704711B98021A0F84C100020AE
:10252000704700EB420003F1010C0023A3EB5C03B6
:1025300000F5806004E031F8022B013320F8042B11
:10254000002BF8D17047FEE710B5074C00F00F03E1
:10255000044AB0F1FF3F2344C8BF83180801187034
:1025600010BD00BF00E400E014ED00E08CB0FDF70A
:10257000C9FEFEF7A7FD494E4FF0000904200425CF
:10258000CDF82890B0470820B0471020B04702206F
:10259000CDF82490434C06A90890012007904048AC
:1025A000069004F53C40FEF735FC3F484FF40058D8
:1025B000C0F8008083460820CDF81490B04703206F
:1025C000049501A90390092002904CF2C0000190EB
:1025D00004F53840FEF71EFC3448016841F4001150
:1025E000016006A9006800F4001006900698E068F3
:1025F00020F00100E060206820F0400020602068AA
:1026000020F0800020604FF480400B904FF48060F9
:102610000A902748CDE90899CDE906902046FEF7B3
:1026200057FCE06820F0FE00E060FEF7F7FC4FF496
:10263000FA60FEF7DFFC1F4C1F4F0FF2800A22A644
:102640004FF47A70FEF7D6FC20465C21FDF738FE89
:1026500003E04FF47A70FEF7CDFC38780028F8D00C
:10266000012817D150460921CBF80080FDF728FE3C
:102670000520FEF7BFFC30462221FDF721FE012593
:1026800006E06420FEF7B6FCA8B2FEF703FB0135B6
:10269000802DF6D187F80090D2E700BFF90D000831
:1026A0002000200400540040101001401C10024083
:1026B000A0860100B82B0008980100205343414E2A
:1026C0002E2E2E0D0A000000202020202020203158
:1026D00030304B487A203230304B487A203330301B
:1026E0004B487A203430304B487A00000FB4084B06
:1026F00010B504A902AA039800F01CF8044602A928
:10270000002000F048FA204610BC5DF814FB0000E1
:10271000972B000802E008C8121F08C1002AFAD14E
:1027200070477047002001E001C1121F002AFBD151
:10273000704700002DE9FF4F8DB00F46054600267B
:1027400006E025280BD0DDE90F1290476D1C761CA2
:1027500028780028F5D111B03046BDE8F08F00246C
:10276000A246A1460122EC4900E0044315F8013FCE
:10277000203B02FA03F00842F7D128782A2810D02B
:102780006FF02F022878A0F13001092914D80AEB44
:102790008A0102EB410144F0020400EB010A6D1CC6
:1027A000F0E701CF5FEA000A03D544F40054CAF110
:1027B000000A44F002046D1C28782E2817D115F861
:1027C000010F44F004042A280ED06FF02F0228785D
:1027D000A0F1300109290AD809EB890102EB410176
:1027E00000EB01096D1CF2E757F8049B6D1C28787B
:1027F0006C280FD006DC4C2817D068280DD06A282A
:1028000014D104E0742810D07A280FD10DE044F4DC
:1028100000140AE044F4801401E044F440146978A0
:10282000814202D104F580146D1C6D1C2A786E2A39
:102830001FD00CDC632A31D004DC002A8BD0582A4C
:1028400011D1A3E0642A68D0692A0CD165E0732A0B
:102850002ED004DC6F2A73D0702A04D19BE0752A35
:102860006FD0782A6ED01046DDE90F129047761CA3
:1028700050E1C4F30250022806D0032809D00428EE
:1028800001CF09D0066045E101CFF117C0E9006131
:1028900040E101CF06803DE106703BE117F8040BF3
:1028A0008DF8000000208DF80100EB46012003E0C8
:1028B00057F804BB4FF0FF3061074FF0000102D41E
:1028C0000DE008F10101884649450FDA8045F8DB43
:1028D0001BF808100029F4D108E008F1010188462E
:1028E0008142FADB1BF808100029F6D1DDE90F233D
:1028F000AAEB08008146214600F036F9304400EB8F
:10290000080604E0DDE90F121BF8010B9047B8F14F
:102910000108F7D221464846F7E00A21C4F30253E2
:102920004FF0000B0891022B04D001CFC117032BED
:1029300009D00AE0FF1D27F00707F7E8020108E0C9
:1029400032E01FE020E000B2C117042B01D140B2F9
:10295000C117031E71F1000307DA4FF0000CD0EB32
:102960000C006CEB01012D2302E0230504D52B2381
:102970008DF82430012303E0E30701D02023F7E79B
:10298000984658E00A2110E010210EE010204FF088
:10299000000B08900CE010214FF0000B44F00404F1
:1029A0004FF00809089103E008214FF0000B08914F
:1029B000C4F30253022B04D001CF0021032B06D015
:1029C00006E0FF1D27F00707F7E8020103E080B2E9
:1029D000042B00D1C0B24FF0000823072BD5702A7A
:1029E00007D0DDF820C08CF0100C5CEA0B0C05D091
:1029F0000EE040238DF82430012308E050EA010363
:102A000006D030238DF824308DF8252002239846F7
:102A1000DDF820C08CF0080C5CEA0B0C0BD150EAFE
:102A2000010301D1630706D530238DF824304FF020
:102A30000108A9F10109582A04D038A20B9208AA6A
:102A40000A920BE03AA2F9E75B46089AFDF786FB8B
:102A50000B9B9B5C0A9A521E0A92137050EA010269
:102A6000F2D10A98ADEB000000F1200B600702D50F
:102A700024F4803401E04FF00109D94502DDA9EBCF
:102A80000B0000E0002000EB0B0141440890AAEB92
:102A9000010AE00306D4DDE90F232146504600F089
:102AA00063F806444FF0000908E009A911F809008D
:102AB000DDE90F12904709F10109761CC145F4DBED
:102AC000E0030CD5DDE90F232146504600F04CF819
:102AD000064404E0DDE90F1230209047761C089987
:102AE000481E08900029F5DC08E00A980A99007849
:102AF000491C0A91DDE90F129047761CBBF10001D9
:102B0000ABF1010BF1DC21465046DDE90F2300F06B
:102B100019F806446D1C1BE60928010030313233D8
:102B20003435363738396162636465660000000009
:102B300030313233343536373839414243444546F3
:102B4000000000002DE9F041044600251E4617460E
:102B5000880404D405E039462020B0476D1C641E6B
:102B6000F9D52846BDE8F0812DE9F041044600255D
:102B70001E469046C80301D5302700E02027880470
:102B800004D505E041463846B0476D1C641EF9D5B2
:102B90002846BDE8F0810A68531C0B60107070472E
:102BA00000000000000000000102030406070809FD
:102BB00000000000010203040D0A0D0A53544D33B6
:102BC0003220493243205363616E6E6572202020AB
:102BD0002056302E3031203A0D0A0D0A5042362050
:102BE0002D3E20493243315F53434C0D0A5042374A
:102BF000202D3E20493243315F5344410D0A0D0AD6
:102C0000747970652027732720746F207363616E59
:102C10000D0A0D0A00000000382C000800000020FA
:102C20009001000002020008082D00089001002019
:102C3000A80E000024270008320132101345151B8E
:102C40000875041A81041AA9041AD9041A25041A49
:102C5000510414A0860114400D0314E09304248051
:102C60001A061324F413B5121B081904139B1342FC
:102C7000081A5D0C13A1111B08EB04C11A9D181A48
:102C800091041AA9041A85041409024313020125A8
:102C9000C03209041B01020B130524161001052480
:102CA0000110090104240202052406170107058208
:102CB0000308151009040133020A2E07050102401A
:102CC000072A810711093744113A02441907112BC9
:102CD0000A0606112B4001502A07500A3B04941A99
:102CE00012171302021E40830440574D1B02035962
:102CF0001365021B085F041A5B041A8904071E048B
:082D00000309041A030000009E
:04000005080000ED02
:00000001FF
